:100000000C942A000C9447000C9447000C94470071
:100010000C9447000C9447000C9447000C94470044
:100020000C9447000C9447000C9447000C94470034
:100030000C9447000C9447000C9447000C94470024
:100040000C9447000C9447000C9447000C94470014
:100050000C94470011241FBECFE5D8E0DEBFCDBF12
:1000600011E0A0E6B0E0ECE6F6E202C005900D92E9
:10007000A038B107D9F711E0A0E8B1E001C01D92A6
:10008000A138B107E1F70E946B060C9434130C946D
:100090000000EF92FF920F931F937B018C0120E0F1
:1000A00030E040E05FE40E94490388238CF0C801FF
:1000B000B70120E030E040E05FE40E94C1010E940F
:1000C000A9039B01AC01205030404040504806C07D
:1000D000C801B7010E94A9039B01AC01B901CA0183
:1000E0001F910F91FF90EF900895A0E0B0E0EBE733
:1000F000F0E00C94FD12DC012B01FA019C9192308E
:1001000008F439C1EB018881823008F433C194309E
:1001100069F4843009F02FC111969C91119789815F
:10012000981709F428C1A0E6B0E025C1843009F48D
:1001300021C18230A9F4923009F01DC19A01AD01AC
:1001400088E0EA010990AE01E90109929E0181501F
:10015000C1F7E201898111969C918923818308C1AD
:10016000923009F407C112962D903C901397EB0141
:100170008A819B811496AD90BD90CD90DC901797AD
:10018000EC80FD800E811F819101281B390BB90184
:1001900037FF04C066277727621B730B6032710537
:1001A0000CF061C0121613066CF537014801062EDB
:1001B00004C096948794779467940A94D2F721E0C8
:1001C00030E040E050E004C0220F331F441F551FB1
:1001D0006A95D2F721503040404050402E213F21B7
:1001E00040235123211531054105510521F021E01E
:1001F00030E040E050E079018A01E628F72808293C
:1002000019293CC0232BD1F1260E371E350146019A
:10021000062E04C096948794779467940A94D2F734
:1002200021E030E040E050E004C0220F331F441FC3
:10023000551F6A95D2F721503040404050402A2146
:100240003B214C215D21211531054105510521F04E
:1002500021E030E040E050E059016A01A628B728CB
:10026000C828D9280BC0821593052CF01C01AA249C
:10027000BB24650103C0EE24FF24870111969C91E5
:10028000D20111968C91981709F445C0992339F041
:10029000A80197012A193B094C095D0906C0A6016E
:1002A00095012E193F09400B510B57FD08C01182D3
:1002B0003382228224833583468357831DC081E0A5
:1002C00081833382228288279927DC01821B930B4A
:1002D000A40BB50B84839583A683B7830DC0220F2F
:1002E000331F441F551F24833583468357838281E0
:1002F000938101979383828324813581468157813D
:10030000DA01C9010197A109B1098F5F9F4FAF4F72
:10031000BF4328F30BC0918333822282EA0CFB1C7B
:100320000C1D1D1DE482F5820683178383E0808304
:10033000248135814681578157FF1AC0C901AA27F8
:1003400097FDA095BA2F81709070A070B0705695EF
:10035000479537952795822B932BA42BB52B848318
:100360009583A683B7838281938101969383828349
:10037000DF0101C0D201CD01CDB7DEB7E2E10C94BF
:100380001913A0E2B0E0E7ECF1E00C9409136983E3
:100390007A838B839C832D833E834F835887E9E048
:1003A000EE2EF12CEC0EFD1ECE010196B7010E943F
:1003B0009A058E010F5E1F4FCE010596B8010E946F
:1003C0009A058A8991E089278A8BC701B801AE0115
:1003D000475E5F4F0E9475000E94C504A096E6E04C
:1003E0000C942513A0E2B0E0E8EFF1E00C940913BF
:1003F00069837A838B839C832D833E834F835887C5
:10040000F9E0EF2EF12CEC0EFD1ECE010196B701A6
:100410000E949A058E010F5E1F4FCE010596B8010E
:100420000E949A05C701B801AE01475E5F4F0E9466
:1004300075000E94C504A096E6E00C942513A0E286
:10044000B0E0E5E2F2E00C94FD1269837A838B83DD
:100450009C832D833E834F835887CE010196BE0136
:10046000675F7F4F0E949A05CE010596BE016F5EC1
:100470007F4F0E949A059985923088F08989823051
:10048000C8F0943019F4823051F404C0843029F457
:10049000923081F480E690E0C6C0923049F420E0CA
:1004A0009A858A89981321E02A87CE010996BBC0D4
:1004B000823049F420E09A858A89981321E02A8BBA
:1004C000CE014196B0C02D843E844F8458886D88FB
:1004D0007E888F88988CEE24FF248701AA24BB2471
:1004E000650140E050E060E070E0E0E0F0E0C10174
:1004F00081709070892BE9F0E60CF71C081D191D1E
:100500009A01AB012A0D3B1D4C1D5D1D80E090E062
:10051000A0E0B0E0E614F7040805190520F481E036
:1005200090E0A0E0B0E0BA01A901480F591F6A1F8E
:100530007B1FAA0CBB1CCC1CDD1C97FE08C081E0F5
:1005400090E0A0E0B0E0A82AB92ACA2ADB2A3196B6
:10055000E032F10549F0660C771C881C991C569412
:10056000479437942794C3CFFA85EA892B893C892D
:100570008B859C85280F391F2E5F3F4F17C0CA01FE
:1005800081709070892B61F016950795F794E79428
:1005900080E090E0A0E0B0E8E82AF92A0A2B1B2BC3
:1005A00076956795579547952F5F3F4F77FDE7CF36
:1005B0000CC0440F551F661F771F17FD4160EE0CDE
:1005C000FF1C001F111F21503040403090E05907A0
:1005D00090E0690790E4790760F32B8F3C8FDB0193
:1005E000CA018F779070A070B07080349105A1051A
:1005F000B10561F447FD0AC0E114F10401051105DC
:1006000029F0405C5F4F6F4F7F4F40781A8EFE1786
:1006100011F081E08A8F4D8F5E8F6F8F78A383E01A
:10062000898FCE0149960E94C504A096E2E10C9400
:100630001913A8E1B0E0EFE1F3E00C94091369832A
:100640007A838B839C832D833E834F83588789E0F5
:10065000E82EF12CEC0EFD1ECE010196B7010E9492
:100660009A058E010F5E1F4FCE010596B8010E94BC
:100670009A058985823040F08989823028F0C70147
:10068000B8010E94120601C08FEF6896E6E00C9454
:100690002513A8E1B0E0EFE4F3E00C9409136983BB
:1006A0007A838B839C832D833E834F83588789E095
:1006B000E82EF12CEC0EFD1ECE010196B7010E9432
:1006C0009A058E010F5E1F4FCE010596B8010E945C
:1006D0009A058985823040F08989823028F0C701E7
:1006E000B8010E94120601C08FEF6896E6E00C94F4
:1006F0002513A8E1B0E0EFE7F3E00C940913698358
:100700007A838B839C832D833E834F83588789E034
:10071000E82EF12CEC0EFD1ECE010196B7010E94D1
:100720009A058E010F5E1F4FCE010596B8010E94FB
:100730009A058985823040F08989823028F0C70186
:10074000B8010E94120601C081E06896E6E00C94B0
:100750002513ACE0B0E0EFEAF3E00C940D136983ED
:100760007A838B839C83CE010196BE016B5F7F4FA2
:100770000E949A058D81823061F1823050F184307F
:1007800021F48E81882351F12EC02F81388537FDC9
:1007900020C06E812F3131051CF06623F9F023C093
:1007A0008EE190E0821B930B29853A854B855C8511
:1007B00004C056954795379527958A95D2F76623B5
:1007C000B1F050954095309521953F4F4F4F5F4F79
:1007D0000EC020E030E040E050E009C02FEF3FEFD6
:1007E0004FEF5FE704C020E030E040E050E8B9019F
:1007F000CA012C96E2E00C942913A8E0B0E0E3E0F3
:10080000F4E00C9405137B018C01611571058105E1
:10081000910519F482E0898360C083E089838EE1C9
:10082000C82ED12CDC82CB82ED82FE820F8318870A
:10083000C801B7010E947604FC013197F7FF3BC065
:10084000222733272E1B3F0B57016801022E04C0BD
:10085000D694C794B794A7940A94D2F740E050E096
:1008600060E070E081E090E0A0E0B0E004C0880FBC
:10087000991FAA1FBB1F2A95D2F70197A109B10999
:100880008E219F21A023B1230097A105B10521F05E
:1008900041E050E060E070E04A295B296C297D2945
:1008A0004D835E836F8378878EE190E08E1B9F0B74
:1008B0009C838B8312C0309781F00E2E04C0EE0C07
:1008C000FF1C001F111F0A94D2F7ED82FE820F83D6
:1008D0001887CE1ADF0ADC82CB821A82CE010196FB
:1008E0000E94C5042896EAE00C942113EF92FF922F
:1008F0000F931F937B018C0180E0E81680E0F806DF
:1009000081E0080780E0180788F48FEFE816F1040B
:100910000105110531F028F088E090E0A0E0B0E09A
:1009200017C080E090E0A0E0B0E012C080E0E816E0
:1009300080E0F80680E0080781E0180728F088E1E9
:1009400090E0A0E0B0E004C080E190E0A0E0B0E082
:1009500020E230E040E050E0281B390B4A0B5B0BF3
:1009600004C016950795F794E7948A95D2F7F70196
:10097000E859FF4F8081281B310941095109C901FC
:100980001F910F91FF90EF900895DF92EF92FF92E9
:100990000F931F93FC01E480F58006811781D180BD
:1009A0008081823048F480E090E0A0E1B0E0E82A65
:1009B000F92A0A2B1B2BA5C0843009F49FC0823072
:1009C00021F4EE24FF24870105C0E114F1040105A0
:1009D000110519F4E0E0F0E096C0628173819FEFA9
:1009E000623879070CF05BC022E83FEF261B370B1B
:1009F0002A3131052CF020E030E040E050E02AC000
:100A0000B801A701022E04C07695679557954795C2
:100A10000A94D2F781E090E0A0E0B0E004C0880F33
:100A2000991FAA1FBB1F2A95D2F70197A109B109E7
:100A30008E219F21A023B1230097A105B10521F0AC
:100A400081E090E0A0E0B0E09A01AB01282B392BC7
:100A50004A2B5B2BDA01C9018F779070A070B070C0
:100A600080349105A105B10539F427FF09C0205C48
:100A70003F4F4F4F5F4F04C0215C3F4F4F4F5F4F81
:100A8000E0E0F0E02030A0E03A07A0E04A07A0E470
:100A90005A0710F0E1E0F0E079018A0127C06038E0
:100AA000710564F5FB01E158FF4FD801C7018F774D
:100AB0009070A070B07080349105A105B10539F433
:100AC000E7FE0DC080E490E0A0E0B0E004C08FE35A
:100AD00090E0A0E0B0E0E80EF91E0A1F1B1F17FF10
:100AE00005C016950795F794E794319687E016951B
:100AF0000795F794E7948A95D1F705C0EE24FF2473
:100B00008701EFEFF0E06E2F679566276795902FCE
:100B10009F77D794DD24D7948E2F8695492F462B27
:100B2000582F5D29B701CA011F910F91FF90EF90D7
:100B3000DF900895FC01DB01408151812281622F09
:100B40006F7770E0221F2227221F9381892F880F41
:100B5000822B282F30E0991F9927991F11969C937B
:100B6000119721153105A9F541155105610571054B
:100B700011F482E037C082E89FEF13969C938E9326
:100B800012979A01AB0167E0220F331F441F551FD4
:100B90006A95D1F783E08C930DC0220F331F441F59
:100BA000551F12968D919C911397019713969C93C4
:100BB0008E931297203080E0380780E0480780E469
:100BC000580758F314962D933D934D935C931797C4
:100BD00008952F3F310579F44115510561057105DF
:100BE00019F484E08C93089564FF03C081E08C9332
:100BF00012C01C9210C02F57304013963C932E9376
:100C0000129783E08C9387E0440F551F661F771F70
:100C10008A95D1F7706414964D935D936D937C9390
:100C2000179708951F93DC01FB019C91923008F403
:100C300047C08081823008F443C0943051F411964B
:100C40001C91843099F58181682F70E0611B7109D6
:100C50003FC0843021F0923031F48230B9F181818B
:100C6000882389F12DC011961C9111978230F1F0E3
:100C700081811817D9F412962D913C911397828196
:100C800093818217930794F028173907BCF01496C4
:100C90008D919D910D90BC91A02D2481358146812F
:100CA0005781281739074A075B0718F4112341F0C9
:100CB0000AC082179307A407B50740F4112319F05F
:100CC00061E070E005C06FEF7FEF02C060E070E0B0
:100CD000CB011F910895DF93CF930F92CDB7DEB76D
:100CE0000E94A7060E94D70C8FEF89830E949F0A5B
:100CF00089838981813329F481E067E00E940F09AB
:100D0000F5CF8981843361F4809180018F5F809376
:100D100080019091800181E0692F0E94F610E6CF5A
:100D20008981853361F480918001815080938001B5
:100D30009091800181E0692F0E94F610D7CF8981C0
:100D40008733A1F682E067E00E940F09CFCFDF93DF
:100D5000CF93CDB7DEB7EAE3F0E08FE08083E7E33F
:100D6000F0E08FEF8083E4E3F0E087E88083E1E365
:100D7000F0E08FEF8083EBE3F0E08FEF8083E8E338
:100D8000F0E01082E5E3F0E01082E2E3F0E01082B0
:100D9000CF91DF910895DF93CF93CDB7DEB72D9735
:100DA0000FB6F894DEBF0FBECDBF89836A834B8335
:100DB0008981843008F008C18A81883008F004C134
:100DC0008B81823008F000C18981282F30E03D8777
:100DD0002C878C859D858130910509F44FC02C8529
:100DE0003D85223031052CF48C859D85009771F06E
:100DF000EBC02C853D852230310509F477C08C8508
:100E00009D858330910509F4A9C0DEC08B81282F10
:100E100030E03B872A878A859B850097D1F02A8519
:100E20003B852130310509F0CFC0AAE3B0E0EAE309
:100E3000F0E08081482F8A81282F30E081E090E027
:100E4000022E02C0880F991F0A94E2F7842B8C931C
:100E5000BBC0AAE3B0E0EAE3F0E08081482F8A81DA
:100E6000282F30E081E090E0022E02C0880F991F09
:100E70000A94E2F7809584238C93A6C08B81282F57
:100E800030E039872887888599850097D1F02885B3
:100E900039852130310509F097C0A7E3B0E0E7E3D9
:100EA000F0E08081482F8A81282F30E081E090E0B7
:100EB000022E02C0880F991F0A94E2F7842B8C93AC
:100EC00083C0A7E3B0E0E7E3F0E08081482F8A81A8
:100ED000282F30E081E090E0022E02C0880F991F99
:100EE0000A94E2F7809584238C936EC08B81282F1F
:100EF00030E03F832E838E819F810097D1F02E8139
:100F00003F812130310509F05FC0A4E3B0E0E4E3A4
:100F1000F0E08081482F8A81282F30E081E090E046
:100F2000022E02C0880F991F0A94E2F7842B8C933B
:100F30004BC0A4E3B0E0E4E3F0E08081482F8A8175
:100F4000282F30E081E090E0022E02C0880F991F28
:100F50000A94E2F7809584238C9336C08B81282FE6
:100F600030E03D832C838C819D810097C9F02C81DA
:100F70003D812130310541F5A1E3B0E0E1E3F0E04E
:100F80008081482F8A81282F30E081E090E0022E76
:100F900002C0880F991F0A94E2F7842B8C9314C027
:100FA000A1E3B0E0E1E3F0E08081482F8A81282FBF
:100FB00030E081E090E0022E02C0880F991F0A9471
:100FC000E2F7809584238C932D960FB6F894DEBFBC
:100FD0000FBECDBFCF91DF910895DF93CF93CDB7F3
:100FE000DEB72D970FB6F894DEBF0FBECDBF898355
:100FF0006A834B838981843008F008C18A818830F4
:1010000008F004C18B81823008F000C18981282F4B
:1010100030E03D872C878C859D858130910509F4D2
:101020004FC02C853D85223031052CF48C859D8563
:10103000009771F0EBC02C853D852230310509F415
:1010400077C08C859D858330910509F4A9C0DEC0E9
:101050008B81282F30E03B872A878A859B850097E4
:10106000D1F02A853B852130310509F0CFC0ABE3B3
:10107000B0E0EBE3F0E08081482F8A81282F30E058
:1010800081E090E0022E02C0880F991F0A94E2F7D7
:10109000842B8C93BBC0ABE3B0E0EBE3F0E080814A
:1010A000482F8A81282F30E081E090E0022E02C094
:1010B000880F991F0A94E2F7809584238C93A6C029
:1010C0008B81282F30E0398728878885998500977C
:1010D000D1F0288539852130310509F097C0A8E382
:1010E000B0E0E8E3F0E08081482F8A81282F30E0EB
:1010F00081E090E0022E02C0880F991F0A94E2F767
:10110000842B8C9383C0A8E3B0E0E8E3F0E0808117
:10111000482F8A81282F30E081E090E0022E02C023
:10112000880F991F0A94E2F7809584238C936EC0F0
:101130008B81282F30E03F832E838E819F81009703
:10114000D1F02E813F812130310509F05FC0A5E348
:10115000B0E0E5E3F0E08081482F8A81282F30E07D
:1011600081E090E0022E02C0880F991F0A94E2F7F6
:10117000842B8C934BC0A5E3B0E0E5E3F0E08081E5
:10118000482F8A81282F30E081E090E0022E02C0B3
:10119000880F991F0A94E2F7809584238C9336C0B8
:1011A0008B81282F30E03D832C838C819D8100979B
:1011B000C9F02C813D812130310541F5A2E3B0E039
:1011C000E2E3F0E08081482F8A81282F30E081E03F
:1011D00090E0022E02C0880F991F0A94E2F7842B38
:1011E0008C9314C0A2E3B0E0E2E3F0E08081482FEA
:1011F0008A81282F30E081E090E0022E02C0880F23
:10120000991F0A94E2F7809584238C932D960FB64C
:10121000F894DEBF0FBECDBFCF91DF910895DF936D
:10122000CF9300D000D0CDB7DEB789836A838981A0
:10123000843008F072C08A81883008F06EC08981DD
:10124000282F30E03C832B838B819C81813091055A
:1012500049F12B813C81223031052CF48B819C811A
:10126000009761F05AC02B813C812230310571F129
:101270008B819C8183309105E9F14FC0ABE3B0E0F5
:10128000EBE3F0E08081482F8A81282F30E081E075
:1012900090E0022E02C0880F991F0A94E2F784277B
:1012A0008C933BC0A8E3B0E0E8E3F0E08081482FF6
:1012B0008A81282F30E081E090E0022E02C0880F62
:1012C000991F0A94E2F784278C9327C0A5E3B0E026
:1012D000E5E3F0E08081482F8A81282F30E081E02B
:1012E00090E0022E02C0880F991F0A94E2F784272B
:1012F0008C9313C0A2E3B0E0E2E3F0E08081482FDA
:101300008A81282F30E081E090E0022E02C0880F11
:10131000991F0A94E2F784278C930F900F900F90F7
:101320000F90CF91DF910895DF93CF9300D000D03D
:101330000F92CDB7DEB78A836B838FEF89838A8163
:10134000843008F06BC08B81883008F067C08A81D8
:10135000282F30E03D832C834C815D814130510545
:1013600041F18C819D818230910534F42C813D8145
:101370002115310561F052C04C815D81423051052B
:1013800051F18C819D8183309105B9F147C0E9E32A
:10139000F0E08081282F30E08B81882F90E0A90138
:1013A00002C0559547958A95E2F7CA0181708983F5
:1013B00035C0E6E3F0E08081282F30E08B81882F74
:1013C00090E0A90102C0559547958A95E2F7CA01B8
:1013D0008170898323C0E3E3F0E08081282F30E02F
:1013E0008B81882F90E0A90102C0559547958A9579
:1013F000E2F7CA018170898311C0E0E3F0E08081E7
:10140000282F30E08B81882F90E0A90102C05595EC
:1014100047958A95E2F7CA018170898389810F9087
:101420000F900F900F900F90CF91DF910895DF9361
:10143000CF9300D000D0CDB7DEB789836A8389818E
:10144000843090F58981282F30E03C832B838B8179
:101450009C8181309105D1F02B813C812230310576
:101460002CF48B819C81009761F01EC02B813C8104
:101470002230310581F08B819C818330910581F090
:1014800013C0EAE3F0E08A8180830EC0E7E3F0E076
:101490008A81808309C0E4E3F0E08A81808304C00C
:1014A000E1E3F0E08A8180830F900F900F900F901E
:1014B000CF91DF910895DF93CF9300D000D0CDB7C7
:1014C000DEB789836A838981843090F58981282FEA
:1014D00030E03C832B838B819C8181309105D1F05E
:1014E0002B813C81223031052CF48B819C8100972B
:1014F00061F01EC02B813C812230310581F08B814F
:101500009C818330910581F013C0EBE3F0E08A8188
:1015100080830EC0E8E3F0E08A81808309C0E5E3C0
:10152000F0E08A81808304C0E2E3F0E08A81808376
:101530000F900F900F900F90CF91DF910895DF9350
:10154000CF93CDB7DEB763970FB6F894DEBF0FBE6B
:10155000CDBF8FEF8B8B1A8A198A1F861A8ADDC03E
:101560008A89882F90E0FC01E858FE4F908180E046
:10157000692F40E00E94ED07198AB9C08989882F38
:1015800090E0FC01E458FE4F908180E0692F0E94BA
:101590009409888B8889882309F0A6C080E090E0B0
:1015A000A0EFB1E48B879C87AD87BE876B857C8578
:1015B0008D859E8520E030E04AEF54E40E941F02B2
:1015C000DC01CB018F839887A987BA876F817885E3
:1015D00089859A8520E030E040E85FE30E94790346
:1015E00088232CF481E090E09E838D833FC06F813F
:1015F000788589859A8520E03FEF4FE757E40E9480
:10160000190318164CF56B857C858D859E8520E029
:1016100030E040E251E40E941F02DC01CB01BC013A
:10162000CD010E944900DC01CB019E838D830FC058
:1016300088EC90E09C838B838B819C810197F1F7F0
:101640009C838B838D819E8101979E838D838D8169
:101650009E81009769F714C06F81788589859A8586
:101660000E944900DC01CB019E838D838D819E8188
:101670009A83898389819A810197F1F79A83898373
:101680008989882F90E0FC01E458FE4F908180E02A
:10169000692F0E949409888B8889882329F50CC0BA
:1016A0008989882F90E0FC01E458FE4F908180E00A
:1016B000692F0E949409888B8889882389F38A89F5
:1016C000482F50E08989282F30E0CA01880F991FE0
:1016D000880F991F820F931FFC01E859FE4F8081EC
:1016E0008B8B81E08F8707C089898F5F898B898980
:1016F000843008F443CF8A89882F90E0FC01E858B1
:10170000FE4F908180E0692F41E00E94ED078F85B8
:10171000813039F08A898F5F8A8B8A89843008F416
:101720001FCF8B8963960FB6F894DEBF0FBECDBF77
:10173000CF91DF910895DF93CF93CDB7DEB72F9789
:101740000FB6F894DEBF0FBECDBF8F8782E060E09A
:1017500040E00E94ED0782E061E040E00E94ED077A
:1017600083E06F850E945B0A82E062E041E00E94B4
:10177000ED0780E090E0A0E0B0E48B879C87AD8728
:10178000BE876B857C858D859E8520E030E04AEFA5
:1017900054E40E941F02DC01CB018F839887A98744
:1017A000BA876F81788589859A8520E030E040E8A6
:1017B0005FE30E94790388232CF481E090E09E830C
:1017C0008D833FC06F81788589859A8520E03FEFC2
:1017D0004FE757E40E94190318164CF56B857C857A
:1017E0008D859E8520E030E040E251E40E941F029A
:1017F000DC01CB01BC01CD010E944900DC01CB0121
:101800009E838D830FC088EC90E09C838B838B81BB
:101810009C810197F1F79C838B838D819E81019739
:101820009E838D838D819E81009769F714C06F819F
:10183000788589859A850E944900DC01CB019E83C9
:101840008D838D819E819A83898389819A81019775
:10185000F1F79A83898382E062E040E00E94ED071D
:101860002F960FB6F894DEBF0FBECDBFCF91DF919C
:101870000895DF93CF93CDB7DEB72F970FB6F894C7
:10188000DEBF0FBECDBF8F8782E060E041E00E94E7
:10189000ED0782E061E040E00E94ED0783E06F85A4
:1018A0000E945B0A82E062E041E00E94ED0780E076
:1018B00090E0A0E0B0E48B879C87AD87BE876B8506
:1018C0007C858D859E8520E030E04AEF54E40E94BF
:1018D0001F02DC01CB018F839887A987BA876F81AC
:1018E000788589859A8520E030E040E85FE30E94B2
:1018F000790388232CF481E090E09E838D833FC0A0
:101900006F81788589859A8520E03FEF4FE757E41E
:101910000E94190318164CF56B857C858D859E8574
:1019200020E030E040E251E40E941F02DC01CB01E4
:10193000BC01CD010E944900DC01CB019E838D8357
:101940000FC088EC90E09C838B838B819C810197F6
:10195000F1F79C838B838D819E8101979E838D837C
:101960008D819E81009769F714C06F817885898584
:101970009A850E944900DC01CB019E838D838D8175
:101980009E819A83898389819A810197F1F79A834D
:10199000898382E062E040E00E94ED072F960FB657
:1019A000F894DEBF0FBECDBFCF91DF9108950F93A6
:1019B0001F93DF93CF93CDB7DEB7C654D0400FB699
:1019C000F894DEBF0FBECDBFFE01ED5BFF4F80E0A0
:1019D00090E0A0EFB1E480839183A283B3838E0172
:1019E000015C1F4FFE01ED5BFF4F608171818281C1
:1019F000938120E030E04AEF54E40E941F02DC01B2
:101A0000CB01F80180839183A283B383FE01FF960B
:101A1000608171818281938120E030E040E85FE362
:101A20000E94790388232CF481E090E09EAF8DAF73
:101A300046C0FE01FF96608171818281938120E022
:101A40003FEF4FE757E40E941903181664F5FE01B3
:101A5000ED5BFF4F608171818281938120E030E0F6
:101A600040E251E40E941F02DC01CB01BC01CD0128
:101A70000E944900DC01CB019EAF8DAF0FC088EC06
:101A800090E09CAF8BAF8BAD9CAD0197F1F79CAF15
:101A90008BAF8DAD9EAD01979EAF8DAF8DAD9EADE1
:101AA000009769F716C0FE01FF96608171818281FF
:101AB00093810E944900DC01CB019EAF8DAF8DADBB
:101AC0009EAD9AAF89AF89AD9AAD0197F1F79AAF04
:101AD00089AF88E30E949B0B80E090E0A0E8BFE321
:101AE0008DAB9EABAFABB8AF6DA97EA98FA998ADFA
:101AF00020E030E04AEF54E40E941F02DC01CB01F9
:101B000089AB9AABABABBCAB69A97AA98BA99CA9F1
:101B100020E030E040E85FE30E94790388232CF462
:101B200081E090E098AB8FA73FC069A97AA98BA903
:101B30009CA920E03FEF4FE757E40E9419031816D5
:101B40004CF56DA97EA98FA998AD20E030E040E268
:101B500051E40E941F02DC01CB01BC01CD010E94B7
:101B60004900DC01CB0198AB8FA70FC088EC90E057
:101B70009EA78DA78DA59EA50197F1F79EA78DA77E
:101B80008FA598A9019798AB8FA78FA598A90097C3
:101B900069F714C069A97AA98BA99CA90E94490078
:101BA000DC01CB0198AB8FA78FA598A99CA78BA729
:101BB0008BA59CA50197F1F79CA78BA78FE00E94AE
:101BC0009B0B80E090E0A0E8BFE38FA398A7A9A7B4
:101BD000BAA76FA178A589A59AA520E030E04AEFC1
:101BE00054E40E941F02DC01CB018BA39CA3ADA394
:101BF000BEA36BA17CA18DA19EA120E030E040E8B6
:101C00005FE30E94790388232CF481E090E09AA39B
:101C100089A33FC06BA17CA18DA19EA120E03FEFD5
:101C20004FE757E40E94190318164CF56FA178A5E9
:101C300089A59AA520E030E040E251E40E941F020D
:101C4000DC01CB01BC01CD010E944900DC01CB01CC
:101C50009AA389A30FC088EC90E098A38F8F8F8DF3
:101C600098A10197F1F798A38F8F89A19AA1019765
:101C70009AA389A389A19AA1009769F714C06BA1BF
:101C80007CA18DA19EA10E944900DC01CB019AA3F9
:101C900089A389A19AA19E8F8D8F8D8D9E8D01978D
:101CA000F1F79E8F8D8F81E00E949B0B80E090E08A
:101CB000A0E0B0E4898F9A8FAB8FBC8F698D7A8D4D
:101CC0008B8D9C8D20E030E04AEF54E40E941F028F
:101CD000DC01CB018D8B9E8BAF8BB88F6D897E899C
:101CE0008F89988D20E030E040E85FE30E9479031F
:101CF00088232CF481E090E09C8B8B8B3FC06D8916
:101D00007E898F89988D20E03FEF4FE757E40E944E
:101D1000190318164CF5698D7A8D8B8D9C8D20E0FA
:101D200030E040E251E40E941F02DC01CB01BC0123
:101D3000CD010E944900DC01CB019C8B8B8B0FC035
:101D400088EC90E09A8B898B89899A890197F1F7C1
:101D50009A8B898B8B899C8901979C8B8B8B8B8928
:101D60009C89009769F714C06D897E898F89988D49
:101D70000E944900DC01CB019C8B8B8B8B899C8959
:101D8000988B8F878F8598890197F1F7988B8F872C
:101D900086E00E949B0B80E090E0A0E8BFE38B8789
:101DA0009C87AD87BE876B857C858D859E8520E071
:101DB00030E04AEF54E40E941F02DC01CB018F8324
:101DC0009887A987BA876F81788589859A8520E069
:101DD00030E040E85FE30E94790388232CF481E03F
:101DE00090E09E838D833FC06F81788589859A8539
:101DF00020E03FEF4FE757E40E94190318164CF517
:101E00006B857C858D859E8520E030E040E251E445
:101E10000E941F02DC01CB01BC01CD010E944900E0
:101E2000DC01CB019E838D830FC088EC90E09C8306
:101E30008B838B819C810197F1F79C838B838D81B0
:101E40009E8101979E838D838D819E81009769F786
:101E500014C06F81788589859A850E944900DC01CC
:101E6000CB019E838D838D819E819A838983898115
:101E70009A810197F1F79A838983CA5BDF4F0FB686
:101E8000F894DEBF0FBECDBFCF91DF911F910F91B0
:101E90000895DF93CF93CDB7DEB72E970FB6F894A2
:101EA000DEBF0FBECDBF81E00E949B0B80E090E0C3
:101EB000A0E0B0E48B879C87AD87BE876B857C856F
:101EC0008D859E8520E030E04AEF54E40E941F0299
:101ED000DC01CB018F839887A987BA876F817885CA
:101EE00089859A8520E030E040E85FE30E9479032D
:101EF00088232CF481E090E09E838D833FC06F8126
:101F0000788589859A8520E03FEF4FE757E40E9466
:101F1000190318164CF56B857C858D859E8520E010
:101F200030E040E251E40E941F02DC01CB01BC0121
:101F3000CD010E944900DC01CB019E838D830FC03F
:101F400088EC90E09C838B838B819C810197F1F7D7
:101F50009C838B838D819E8101979E838D838D8150
:101F60009E81009769F714C06F81788589859A856D
:101F70000E944900DC01CB019E838D838D819E816F
:101F80009A83898389819A810197F1F79A8389835A
:101F90002E960FB6F894DEBF0FBECDBFCF91DF9166
:101FA0000895DF93CF9300D0CDB7DEB79A838983AE
:101FB0000BC0E981FA81208189819A8101969A83F7
:101FC0008983822F0E94390CE981FA8180818823DC
:101FD00081F70F900F90CF91DF910895DF93CF930A
:101FE00000D000D0CDB7DEB789836A838981282FDE
:101FF00030E03C832B838B819C818130910531F0D3
:102000002B813C812230310531F009C08A81815811
:102010000E949B0B04C08A8181540E949B0B0F90ED
:102020000F900F900F90CF91DF910895EF92FF9254
:102030000F931F93DF93CF93CDB7DEB728970FB6DB
:10204000F894DEBF0FBECDBF6D837E838F839887EC
:1020500081E090E0A0E0B0E089839A83AB83BC8309
:1020600089819A81AB81BC810097A105B105D1F529
:1020700080E30E94390C6BC089819A81AB81BC815D
:102080002AE030E040E050E0BC01CD010E94BC12EB
:102090007B018C018D819E81AF81B8852AE030E083
:1020A00040E050E0BC01CD010E94DB12DC01CB011D
:1020B0008E0D9F1DA01FB11F89839A83AB83BC83A4
:1020C0008D819E81AF81B8852AE030E040E050E00C
:1020D000BC01CD010E94DB12DA01C9018D839E8310
:1020E000AF83B8878D819E81AF81B8850097A105A8
:1020F000B10511F623C089819A81AB81BC812AE0A8
:1021000030E040E050E0BC01CD010E94DB12DC0178
:10211000CB01805D0E94390C89819A81AB81BC81A1
:102120002AE030E040E050E0BC01CD010E94DB122B
:10213000DA01C90189839A83AB83BC8389819A813F
:10214000AB81BC8181309105A105B105A1F628962E
:102150000FB6F894DEBF0FBECDBFCF91DF911F91B8
:102160000F91FF90EF900895DF93CF93CDB7DEB737
:1021700027970FB6F894DEBF0FBECDBF9C838B832D
:102180006D834E832F838D81882F90E0880F991F58
:10219000880F991F880F991F8A838A8180648A8398
:1021A0008A810E949B0B19820EC08981282F30E002
:1021B0008B819C81FC01E20FF31F80810E94390C0E
:1021C00089818F5F89838981883078F38E816F81DF
:1021D0000E94EE0F8D810E94390C27960FB6F8945D
:1021E000DEBF0FBECDBFCF91DF910895DF93CF93B8
:1021F00000D000D0CDB7DEB789836A838A81282FCB
:1022000030E03C832B838B819C818430910509F4E1
:1022100055C02B813C8125303105DCF48B819C81BC
:102220008130910509F43BC02B813C81223031057E
:102230002CF48B819C81009769F15DC02B813C81DE
:102240002230310589F18B819C818330910589F1A0
:1022500052C02B813C812730310509F43EC08B816F
:102260009C81883091055CF42B813C8125303105BF
:1022700051F18B819C818630910551F13CC02B81BD
:102280003C812830310571F18B819C818930910529
:1022900071F131C089816FE30E945B0A2CC0898192
:1022A00066E00E945B0A27C089816BE50E945B0A99
:1022B00022C089816FE40E945B0A1DC0898166E6A5
:1022C0000E945B0A18C089816DE60E945B0A13C0F8
:1022D00089816DE70E945B0A0EC0898167E00E94D8
:1022E0005B0A09C089816FE70E945B0A04C089818B
:1022F0006FE60E945B0A0F900F900F900F90CF91A6
:10230000DF910895DF93CF93CDB7DEB762970FB615
:10231000F894DEBF0FBECDBF888B7A8B698B1F868A
:1023200080C088896F850E94F61089899A89CC01BE
:10233000A0E0B0E0BC01CD010E94FD03DC01CB01B7
:102340008B879C87AD87BE876B857C858D859E85B9
:1023500020E030E04AEF54E40E941F02DC01CB0190
:102360008F839887A987BA876F81788589859A85B1
:1023700020E030E040E85FE30E94790388232CF4FA
:1023800081E090E09E838D833FC06F817885898551
:102390009A8520E03FEF4FE757E40E941903181693
:1023A0004CF56B857C858D859E8520E030E040E294
:1023B00051E40E941F02DC01CB01BC01CD010E944F
:1023C0004900DC01CB019E838D830FC088EC90E037
:1023D0009C838B838B819C810197F1F79C838B83FA
:1023E0008D819E8101979E838D838D819E81009733
:1023F00069F714C06F81788589859A850E944900A4
:10240000DC01CB019E838D838D819E819A8389839C
:1024100089819A810197F1F79A8389838F858F5FEC
:102420008F878F858A3008F47CCF62960FB6F89438
:10243000DEBF0FBECDBFCF91DF910895DF93CF9365
:10244000CDB7DEB762970FB6F894DEBF0FBECDBF33
:10245000888B7A8B698B89E08F8781C09F8588897B
:10246000692F0E94F61089899A89CC01A0E0B0E01A
:10247000BC01CD010E94FD03DC01CB018B879C8751
:10248000AD87BE876B857C858D859E8520E030E09D
:102490004AEF54E40E941F02DC01CB018F8398872E
:1024A000A987BA876F81788589859A8520E030E091
:1024B00040E85FE30E94790388232CF481E090E0F8
:1024C0009E838D833FC06F81788589859A8520E0C2
:1024D0003FEF4FE757E40E94190318164CF56B8540
:1024E0007C858D859E8520E030E040E251E40E94AD
:1024F0001F02DC01CB01BC01CD010E944900DC01BF
:10250000CB019E838D830FC088EC90E09C838B83EE
:102510008B819C810197F1F79C838B838D819E81B8
:1025200001979E838D838D819E81009769F714C0EA
:102530006F81788589859A850E944900DC01CB01ED
:102540009E838D838D819E819A83898389819A81DF
:102550000197F1F79A8389838F8581508F878F85C3
:1025600088230CF07BCF62960FB6F894DEBF0FBEC7
:10257000CDBFCF91DF910895629FD001739FF0018D
:10258000829FE00DF11D649FE00DF11D929FF00D03
:10259000839FF00D749FF00D659FF00D9927729F3A
:1025A000B00DE11DF91F639FB00DE11DF91FBD01C5
:1025B000CF0111240895A1E21A2EAA1BBB1BFD0115
:1025C0000DC0AA1FBB1FEE1FFF1FA217B307E40712
:1025D000F50720F0A21BB30BE40BF50B661F771F6A
:1025E000881F991F1A9469F760957095809590954A
:1025F0009B01AC01BD01CF0108952F923F924F92F4
:102600005F926F927F928F929F92AF92BF92CF9282
:10261000DF92EF92FF920F931F93CF93DF93CDB78B
:10262000DEB7CA1BDB0B0FB6F894DEBF0FBECDBF03
:1026300009942A88398848885F846E847D848C84D4
:102640009B84AA84B984C884DF80EE80FD800C81DD
:102650001B81AA81B981CE0FD11D0FB6F894DEBFC0
:0C2660000FBECDBFED010895F894FFCF30
:10266C00000000000000000000010202030303034D
:10267C000404040404040404050505050505050506
:10268C0005050505050505050606060606060606E6
:10269C0006060606060606060606060606060606CE
:1026AC0006060606060606060707070707070707B6
:1026BC00070707070707070707070707070707079E
:1026CC00070707070707070707070707070707078E
:1026DC00070707070707070707070707070707077E
:1026EC000707070707070707080808080808080866
:1026FC00080808080808080808080808080808084E
:10270C00080808080808080808080808080808083D
:10271C00080808080808080808080808080808082D
:10272C00080808080808080808080808080808081D
:10273C00080808080808080808080808080808080D
:10274C0008080808080808080808080808080808FD
:10275C0008080808080808080808080808080808ED
:10276C0008080808080808083132332B3435362D90
:10277C003738392A43303D2F000102030405060780
:00000001FF
